{
  "contractName": "Project",
  "abi": [
    {
      "inputs": [
        {
          "internalType": "string",
          "name": "_Project_name",
          "type": "string"
        },
        {
          "internalType": "string",
          "name": "_document_url",
          "type": "string"
        },
        {
          "internalType": "string",
          "name": "_purpose",
          "type": "string"
        },
        {
          "internalType": "address",
          "name": "_official_incharge",
          "type": "address"
        },
        {
          "internalType": "address payable",
          "name": "_father",
          "type": "address"
        },
        {
          "internalType": "address payable",
          "name": "_parent_project",
          "type": "address"
        }
      ],
      "payable": false,
      "stateMutability": "nonpayable",
      "type": "constructor"
    },
    {
      "payable": true,
      "stateMutability": "payable",
      "type": "fallback"
    },
    {
      "constant": false,
      "inputs": [
        {
          "internalType": "address",
          "name": "_add",
          "type": "address"
        }
      ],
      "name": "addOfficial",
      "outputs": [],
      "payable": false,
      "stateMutability": "nonpayable",
      "type": "function"
    },
    {
      "constant": true,
      "inputs": [],
      "name": "getBalance",
      "outputs": [
        {
          "internalType": "uint256",
          "name": "",
          "type": "uint256"
        }
      ],
      "payable": false,
      "stateMutability": "view",
      "type": "function"
    },
    {
      "constant": true,
      "inputs": [],
      "name": "getContractAddress",
      "outputs": [
        {
          "internalType": "address",
          "name": "",
          "type": "address"
        }
      ],
      "payable": false,
      "stateMutability": "view",
      "type": "function"
    },
    {
      "constant": true,
      "inputs": [],
      "name": "owner",
      "outputs": [
        {
          "internalType": "address",
          "name": "",
          "type": "address"
        }
      ],
      "payable": false,
      "stateMutability": "view",
      "type": "function"
    },
    {
      "constant": false,
      "inputs": [
        {
          "internalType": "address",
          "name": "_add",
          "type": "address"
        }
      ],
      "name": "removeOfficial",
      "outputs": [],
      "payable": false,
      "stateMutability": "nonpayable",
      "type": "function"
    },
    {
      "constant": true,
      "inputs": [
        {
          "internalType": "uint256",
          "name": "",
          "type": "uint256"
        }
      ],
      "name": "subProjectAddress",
      "outputs": [
        {
          "internalType": "address",
          "name": "",
          "type": "address"
        }
      ],
      "payable": false,
      "stateMutability": "view",
      "type": "function"
    },
    {
      "constant": true,
      "inputs": [],
      "name": "total_officals",
      "outputs": [
        {
          "internalType": "uint256",
          "name": "",
          "type": "uint256"
        }
      ],
      "payable": false,
      "stateMutability": "view",
      "type": "function"
    },
    {
      "constant": true,
      "inputs": [],
      "name": "getProjectInfo",
      "outputs": [
        {
          "internalType": "string",
          "name": "",
          "type": "string"
        },
        {
          "internalType": "string",
          "name": "",
          "type": "string"
        },
        {
          "internalType": "string",
          "name": "",
          "type": "string"
        },
        {
          "internalType": "address",
          "name": "",
          "type": "address"
        },
        {
          "internalType": "address",
          "name": "",
          "type": "address"
        }
      ],
      "payable": false,
      "stateMutability": "view",
      "type": "function"
    },
    {
      "constant": false,
      "inputs": [
        {
          "internalType": "uint256",
          "name": "token_no",
          "type": "uint256"
        }
      ],
      "name": "verifyPending_Projects",
      "outputs": [
        {
          "internalType": "string",
          "name": "",
          "type": "string"
        }
      ],
      "payable": false,
      "stateMutability": "nonpayable",
      "type": "function"
    },
    {
      "constant": false,
      "inputs": [
        {
          "internalType": "string",
          "name": "_projectName",
          "type": "string"
        },
        {
          "internalType": "string",
          "name": "_purpose",
          "type": "string"
        },
        {
          "internalType": "string",
          "name": "_url",
          "type": "string"
        }
      ],
      "name": "addNewSubProjectRequest",
      "outputs": [
        {
          "internalType": "uint256",
          "name": "",
          "type": "uint256"
        }
      ],
      "payable": false,
      "stateMutability": "nonpayable",
      "type": "function"
    },
    {
      "constant": false,
      "inputs": [
        {
          "internalType": "string",
          "name": "_subject",
          "type": "string"
        },
        {
          "internalType": "string",
          "name": "_document_url",
          "type": "string"
        },
        {
          "internalType": "uint256",
          "name": "_weiAmountRequested",
          "type": "uint256"
        }
      ],
      "name": "requestGrant",
      "outputs": [
        {
          "internalType": "string",
          "name": "",
          "type": "string"
        },
        {
          "internalType": "int256",
          "name": "",
          "type": "int256"
        }
      ],
      "payable": false,
      "stateMutability": "nonpayable",
      "type": "function"
    },
    {
      "constant": true,
      "inputs": [
        {
          "internalType": "uint256",
          "name": "_requestID",
          "type": "uint256"
        }
      ],
      "name": "checkRequestStatus",
      "outputs": [
        {
          "internalType": "bool",
          "name": "",
          "type": "bool"
        },
        {
          "internalType": "bool",
          "name": "",
          "type": "bool"
        }
      ],
      "payable": false,
      "stateMutability": "view",
      "type": "function"
    },
    {
      "constant": false,
      "inputs": [
        {
          "internalType": "string",
          "name": "_subject",
          "type": "string"
        },
        {
          "internalType": "string",
          "name": "_document_url",
          "type": "string"
        },
        {
          "internalType": "uint256",
          "name": "_weiAmountRequested",
          "type": "uint256"
        }
      ],
      "name": "handleGrantRequest",
      "outputs": [
        {
          "internalType": "string",
          "name": "",
          "type": "string"
        },
        {
          "internalType": "int256",
          "name": "",
          "type": "int256"
        }
      ],
      "payable": false,
      "stateMutability": "nonpayable",
      "type": "function"
    },
    {
      "constant": true,
      "inputs": [
        {
          "internalType": "uint256",
          "name": "_index",
          "type": "uint256"
        }
      ],
      "name": "grantApprovalCheck",
      "outputs": [
        {
          "internalType": "bool",
          "name": "",
          "type": "bool"
        },
        {
          "internalType": "bool",
          "name": "",
          "type": "bool"
        }
      ],
      "payable": false,
      "stateMutability": "view",
      "type": "function"
    },
    {
      "constant": false,
      "inputs": [
        {
          "internalType": "uint256",
          "name": "_index",
          "type": "uint256"
        },
        {
          "internalType": "bool",
          "name": "_decision",
          "type": "bool"
        }
      ],
      "name": "voteForGrant",
      "outputs": [],
      "payable": false,
      "stateMutability": "nonpayable",
      "type": "function"
    },
    {
      "constant": false,
      "inputs": [],
      "name": "initiatePeriodicDistribution",
      "outputs": [],
      "payable": false,
      "stateMutability": "nonpayable",
      "type": "function"
    }
  ],
  "bytecode": "0x60806040523480156200001157600080fd5b506040516200279638038062002796833981810160405260c08110156200003757600080fd5b81019080805160405193929190846401000000008211156200005857600080fd5b838201915060208201858111156200006f57600080fd5b82518660018202830111640100000000821117156200008d57600080fd5b8083526020830192505050908051906020019080838360005b83811015620000c3578082015181840152602081019050620000a6565b50505050905090810190601f168015620000f15780820380516001836020036101000a031916815260200191505b50604052602001805160405193929190846401000000008211156200011557600080fd5b838201915060208201858111156200012c57600080fd5b82518660018202830111640100000000821117156200014a57600080fd5b8083526020830192505050908051906020019080838360005b838110156200018057808201518184015260208101905062000163565b50505050905090810190601f168015620001ae5780820380516001836020036101000a031916815260200191505b5060405260200180516040519392919084640100000000821115620001d257600080fd5b83820191506020820185811115620001e957600080fd5b82518660018202830111640100000000821117156200020757600080fd5b8083526020830192505050908051906020019080838360005b838110156200023d57808201518184015260208101905062000220565b50505050905090810190601f1680156200026b5780820380516001836020036101000a031916815260200191505b50604052602001805190602001909291908051906020019092919080519060200190929190505050336000806101000a81548173ffffffffffffffffffffffffffffffffffffffff021916908373ffffffffffffffffffffffffffffffffffffffff16021790555060018060008060009054906101000a900473ffffffffffffffffffffffffffffffffffffffff1673ffffffffffffffffffffffffffffffffffffffff1673ffffffffffffffffffffffffffffffffffffffff16815260200190815260200160002060006101000a81548160ff0219169083151502179055506001600281905550826000806101000a81548173ffffffffffffffffffffffffffffffffffffffff021916908373ffffffffffffffffffffffffffffffffffffffff16021790555080600660006101000a81548173ffffffffffffffffffffffffffffffffffffffff021916908373ffffffffffffffffffffffffffffffffffffffff1602179055508560039080519060200190620003ec9291906200046c565b508460049080519060200190620004059291906200046c565b5083600590805190602001906200041e9291906200046c565b5081600960006101000a81548173ffffffffffffffffffffffffffffffffffffffff021916908373ffffffffffffffffffffffffffffffffffffffff1602179055505050505050506200051b565b828054600181600116156101000203166002900490600052602060002090601f016020900481019282601f10620004af57805160ff1916838001178555620004e0565b82800160010185558215620004e0579182015b82811115620004df578251825591602001919060010190620004c2565b5b509050620004ef9190620004f3565b5090565b6200051891905b8082111562000514576000816000905550600101620004fa565b5090565b90565b61226b806200052b6000396000f3fe6080604052600436106100f35760003560e01c80635b5287f91161008a578063a2b7a8c311610059578063a2b7a8c31461098e578063ac840db0146109d5578063de8f51d514610a26578063e2a50f7714610c30576100f3565b80635b5287f91461039757806367c897fe1461058057806380d038e31461074e5780638da5cb5b14610937576100f3565b806332a2c5d0116100c657806332a2c5d0146102245780634132327b1461027b5780634fea495414610292578063511482f1146102e3576100f3565b806303b2a739146100f5578063091df85f1461017057806312065fe01461019b57806321e19b49146101c6575b005b34801561010157600080fd5b5061012e6004803603602081101561011857600080fd5b8101908080359060200190929190505050610c8e565b604051808273ffffffffffffffffffffffffffffffffffffffff1673ffffffffffffffffffffffffffffffffffffffff16815260200191505060405180910390f35b34801561017c57600080fd5b50610185610cc1565b6040518082815260200191505060405180910390f35b3480156101a757600080fd5b506101b0610cc7565b6040518082815260200191505060405180910390f35b3480156101d257600080fd5b506101ff600480360360208110156101e957600080fd5b8101908080359060200190929190505050610ccf565b6040518083151515158152602001821515151581526020019250505060405180910390f35b34801561023057600080fd5b50610239610d92565b604051808273ffffffffffffffffffffffffffffffffffffffff1673ffffffffffffffffffffffffffffffffffffffff16815260200191505060405180910390f35b34801561028757600080fd5b50610290610d9a565b005b34801561029e57600080fd5b506102e1600480360360208110156102b557600080fd5b81019080803573ffffffffffffffffffffffffffffffffffffffff169060200190929190505050610f16565b005b3480156102ef57600080fd5b5061031c6004803603602081101561030657600080fd5b810190808035906020019092919050505061103b565b6040518080602001828103825283818151815260200191508051906020019080838360005b8381101561035c578082015181840152602081019050610341565b50505050905090810190601f1680156103895780820380516001836020036101000a031916815260200191505b509250505060405180910390f35b3480156103a357600080fd5b506104fe600480360360608110156103ba57600080fd5b81019080803590602001906401000000008111156103d757600080fd5b8201836020820111156103e957600080fd5b8035906020019184600183028401116401000000008311171561040b57600080fd5b91908080601f016020809104026020016040519081016040528093929190818152602001838380828437600081840152601f19601f8201169050808301925050505050505091929192908035906020019064010000000081111561046e57600080fd5b82018360208201111561048057600080fd5b803590602001918460018302840111640100000000831117156104a257600080fd5b91908080601f016020809104026020016040519081016040528093929190818152602001838380828437600081840152601f19601f82011690508083019250505050505050919291929080359060200190929190505050611204565b6040518080602001838152602001828103825284818151815260200191508051906020019080838360005b83811015610544578082015181840152602081019050610529565b50505050905090810190601f1680156105715780820380516001836020036101000a031916815260200191505b50935050505060405180910390f35b34801561058c57600080fd5b506105956114c2565b604051808060200180602001806020018673ffffffffffffffffffffffffffffffffffffffff1673ffffffffffffffffffffffffffffffffffffffff1681526020018573ffffffffffffffffffffffffffffffffffffffff1673ffffffffffffffffffffffffffffffffffffffff168152602001848103845289818151815260200191508051906020019080838360005b83811015610641578082015181840152602081019050610626565b50505050905090810190601f16801561066e5780820380516001836020036101000a031916815260200191505b50848103835288818151815260200191508051906020019080838360005b838110156106a757808201518184015260208101905061068c565b50505050905090810190601f1680156106d45780820380516001836020036101000a031916815260200191505b50848103825287818151815260200191508051906020019080838360005b8381101561070d5780820151818401526020810190506106f2565b50505050905090810190601f16801561073a5780820380516001836020036101000a031916815260200191505b509850505050505050505060405180910390f35b34801561075a57600080fd5b506108b56004803603606081101561077157600080fd5b810190808035906020019064010000000081111561078e57600080fd5b8201836020820111156107a057600080fd5b803590602001918460018302840111640100000000831117156107c257600080fd5b91908080601f016020809104026020016040519081016040528093929190818152602001838380828437600081840152601f19601f8201169050808301925050505050505091929192908035906020019064010000000081111561082557600080fd5b82018360208201111561083757600080fd5b8035906020019184600183028401116401000000008311171561085957600080fd5b91908080601f016020809104026020016040519081016040528093929190818152602001838380828437600081840152601f19601f82011690508083019250505050505050919291929080359060200190929190505050611701565b6040518080602001838152602001828103825284818151815260200191508051906020019080838360005b838110156108fb5780820151818401526020810190506108e0565b50505050905090810190601f1680156109285780820380516001836020036101000a031916815260200191505b50935050505060405180910390f35b34801561094357600080fd5b5061094c611a15565b604051808273ffffffffffffffffffffffffffffffffffffffff1673ffffffffffffffffffffffffffffffffffffffff16815260200191505060405180910390f35b34801561099a57600080fd5b506109d3600480360360408110156109b157600080fd5b8101908080359060200190929190803515159060200190929190505050611a3a565b005b3480156109e157600080fd5b50610a24600480360360208110156109f857600080fd5b81019080803573ffffffffffffffffffffffffffffffffffffffff169060200190929190505050611ce7565b005b348015610a3257600080fd5b50610c1a60048036036060811015610a4957600080fd5b8101908080359060200190640100000000811115610a6657600080fd5b820183602082011115610a7857600080fd5b80359060200191846001830284011164010000000083111715610a9a57600080fd5b91908080601f016020809104026020016040519081016040528093929190818152602001838380828437600081840152601f19601f82011690508083019250505050505050919291929080359060200190640100000000811115610afd57600080fd5b820183602082011115610b0f57600080fd5b80359060200191846001830284011164010000000083111715610b3157600080fd5b91908080601f016020809104026020016040519081016040528093929190818152602001838380828437600081840152601f19601f82011690508083019250505050505050919291929080359060200190640100000000811115610b9457600080fd5b820183602082011115610ba657600080fd5b80359060200191846001830284011164010000000083111715610bc857600080fd5b91908080601f016020809104026020016040519081016040528093929190818152602001838380828437600081840152601f19601f820116905080830192505050505050509192919290505050611e0f565b6040518082815260200191505060405180910390f35b348015610c3c57600080fd5b50610c6960048036036020811015610c5357600080fd5b81019080803590602001909291905050506120cf565b6040518083151515158152602001821515151581526020019250505060405180910390f35b60076020528060005260406000206000915054906101000a900473ffffffffffffffffffffffffffffffffffffffff1681565b60025481565b600047905090565b600080600660009054906101000a900473ffffffffffffffffffffffffffffffffffffffff1673ffffffffffffffffffffffffffffffffffffffff1663e2a50f77846040518263ffffffff1660e01b815260040180828152602001915050604080518083038186803b158015610d4457600080fd5b505afa158015610d58573d6000803e3d6000fd5b505050506040513d6040811015610d6e57600080fd5b81019080805190602001909291908051906020019092919050505091509150915091565b600030905090565b6000809054906101000a900473ffffffffffffffffffffffffffffffffffffffff1673ffffffffffffffffffffffffffffffffffffffff163373ffffffffffffffffffffffffffffffffffffffff1614610df357600080fd5b6000671bc16d674ec800009050600080600a80549050905060008090505b81811015610f10576000600a8281548110610e2857fe5b906000526020600020906008020190508060030160169054906101000a900460ff168015610e6457508060030160149054906101000a900460ff165b15610f045784816002015410610e7a5784610e80565b80600201545b9350610e8b8461211f565b15610efd57610ebe8160030160009054906101000a900473ffffffffffffffffffffffffffffffffffffffff1685612146565b838160020154038160020181905550600081600201541415610ef85760008160030160166101000a81548160ff0219169083151502179055505b610f03565b50610f10565b5b50806001019050610e11565b50505050565b60011515600160003373ffffffffffffffffffffffffffffffffffffffff1673ffffffffffffffffffffffffffffffffffffffff16815260200190815260200160002060009054906101000a900460ff16151514610f7357600080fd5b60011515600160008373ffffffffffffffffffffffffffffffffffffffff1673ffffffffffffffffffffffffffffffffffffffff16815260200190815260200160002060009054906101000a900460ff1615151415611038576000600160008373ffffffffffffffffffffffffffffffffffffffff1673ffffffffffffffffffffffffffffffffffffffff16815260200190815260200160002060006101000a81548160ff021916908315150217905550600260008154809291906001900391905055505b50565b6060600080600960009054906101000a900473ffffffffffffffffffffffffffffffffffffffff1673ffffffffffffffffffffffffffffffffffffffff1663511482f1856040518263ffffffff1660e01b8152600401808281526020019150506040805180830381600087803b1580156110b457600080fd5b505af11580156110c8573d6000803e3d6000fd5b505050506040513d60408110156110de57600080fd5b810190808051906020019092919080519060200190929190505050809250819350505081156111c457806007600086815260200190815260200160002060006101000a81548173ffffffffffffffffffffffffffffffffffffffff021916908373ffffffffffffffffffffffffffffffffffffffff16021790555060088490806001815401808255809150509060018203906000526020600020016000909192909190915055506040518060400160405280601181526020017f4e65772050726f6a656374204164646564000000000000000000000000000000815250925050506111ff565b6040518060400160405280601481526020017f4e6f204e65772050726f6a656374206164646564000000000000000000000000815250925050505b919050565b606060008060009054906101000a900473ffffffffffffffffffffffffffffffffffffffff1673ffffffffffffffffffffffffffffffffffffffff163373ffffffffffffffffffffffffffffffffffffffff161461126157600080fd5b600660009054906101000a900473ffffffffffffffffffffffffffffffffffffffff1673ffffffffffffffffffffffffffffffffffffffff166380d038e38686866040518463ffffffff1660e01b8152600401808060200180602001848152602001838103835286818151815260200191508051906020019080838360005b838110156112fb5780820151818401526020810190506112e0565b50505050905090810190601f1680156113285780820380516001836020036101000a031916815260200191505b50838103825285818151815260200191508051906020019080838360005b83811015611361578082015181840152602081019050611346565b50505050905090810190601f16801561138e5780820380516001836020036101000a031916815260200191505b5095505050505050600060405180830381600087803b1580156113b057600080fd5b505af11580156113c4573d6000803e3d6000fd5b505050506040513d6000823e3d601f19601f8201168201806040525060408110156113ee57600080fd5b810190808051604051939291908464010000000082111561140e57600080fd5b8382019150602082018581111561142457600080fd5b825186600182028301116401000000008211171561144157600080fd5b8083526020830192505050908051906020019080838360005b8381101561147557808201518184015260208101905061145a565b50505050905090810190601f1680156114a25780820380516001836020036101000a031916815260200191505b506040526020018051906020019092919050505091509150935093915050565b6060806060600080600360046005600660009054906101000a900473ffffffffffffffffffffffffffffffffffffffff16600960009054906101000a900473ffffffffffffffffffffffffffffffffffffffff16848054600181600116156101000203166002900480601f0160208091040260200160405190810160405280929190818152602001828054600181600116156101000203166002900480156115ab5780601f10611580576101008083540402835291602001916115ab565b820191906000526020600020905b81548152906001019060200180831161158e57829003601f168201915b50505050509450838054600181600116156101000203166002900480601f0160208091040260200160405190810160405280929190818152602001828054600181600116156101000203166002900480156116475780601f1061161c57610100808354040283529160200191611647565b820191906000526020600020905b81548152906001019060200180831161162a57829003601f168201915b50505050509350828054600181600116156101000203166002900480601f0160208091040260200160405190810160405280929190818152602001828054600181600116156101000203166002900480156116e35780601f106116b8576101008083540402835291602001916116e3565b820191906000526020600020905b8154815290600101906020018083116116c657829003601f168201915b50505050509250819150809050945094509450945094509091929394565b6060600080600880549050905060008090505b818110156119ab573373ffffffffffffffffffffffffffffffffffffffff16600760006008848154811061174457fe5b9060005260206000200154815260200190815260200160002060009054906101000a900473ffffffffffffffffffffffffffffffffffffffff1673ffffffffffffffffffffffffffffffffffffffff1614156119a057600a6040518061014001604052808981526020018881526020018781526020013373ffffffffffffffffffffffffffffffffffffffff16815260200160001515815260200160011515815260200160011515815260200160008152602001600081526020016000151581525090806001815401808255809150509060018203906000526020600020906008020160009091929091909150600082015181600001908051906020019061184d929190612191565b50602082015181600101908051906020019061186a929190612191565b506040820151816002015560608201518160030160006101000a81548173ffffffffffffffffffffffffffffffffffffffff021916908373ffffffffffffffffffffffffffffffffffffffff16021790555060808201518160030160146101000a81548160ff02191690831515021790555060a08201518160030160156101000a81548160ff02191690831515021790555060c08201518160030160166101000a81548160ff02191690831515021790555060e0820151816004015561010082015181600501556101208201518160070160006101000a81548160ff0219169083151502179055505050506001600a80549050036040518060400160405280600d81526020017f526571756573742041646465640000000000000000000000000000000000000081525090935093505050611a0d565b806001019050611714565b507fffffffffffffffffffffffffffffffffffffffffffffffffffffffffffffffff6040518060400160405280601481526020017f5265717565737420496e6170706c696361626c650000000000000000000000008152509080905092509250505b935093915050565b6000809054906101000a900473ffffffffffffffffffffffffffffffffffffffff1681565b60011515600160003373ffffffffffffffffffffffffffffffffffffffff1673ffffffffffffffffffffffffffffffffffffffff16815260200190815260200160002060009054906101000a900460ff16151514611a9757600080fd5b6000600a8381548110611aa657fe5b906000526020600020906008020190508060060160003373ffffffffffffffffffffffffffffffffffffffff1673ffffffffffffffffffffffffffffffffffffffff16815260200190815260200160002060009054906101000a900460ff1615611b0f57600080fd5b60018160060160003373ffffffffffffffffffffffffffffffffffffffff1673ffffffffffffffffffffffffffffffffffffffff16815260200190815260200160002060006101000a81548160ff02191690831515021790555080600401600081548092919060010191905055508115611b985780600501600081548092919060010191905055505b6000809054906101000a900473ffffffffffffffffffffffffffffffffffffffff1673ffffffffffffffffffffffffffffffffffffffff163373ffffffffffffffffffffffffffffffffffffffff161415611c0b5760018160070160006101000a81548160ff0219169083151502179055505b600115158160070160009054906101000a900460ff161515148015611c425750600a60025460070281611c3a57fe5b048160050154115b15611c865760008160030160156101000a81548160ff02191690831515021790555060018160030160146101000a81548160ff021916908315150217905550611ce2565b600a60025460030281611c9557fe5b04816005015482600401540310611ce15760008160030160156101000a81548160ff02191690831515021790555060008160030160146101000a81548160ff0219169083151502179055505b5b505050565b60011515600160003373ffffffffffffffffffffffffffffffffffffffff1673ffffffffffffffffffffffffffffffffffffffff16815260200190815260200160002060009054906101000a900460ff16151514611d4457600080fd5b60011515600160008373ffffffffffffffffffffffffffffffffffffffff1673ffffffffffffffffffffffffffffffffffffffff16815260200190815260200160002060009054906101000a900460ff1615151415611da257611e0c565b60018060008373ffffffffffffffffffffffffffffffffffffffff1673ffffffffffffffffffffffffffffffffffffffff16815260200190815260200160002060006101000a81548160ff0219169083151502179055506002600081548092919060010191905055505b50565b60008060009054906101000a900473ffffffffffffffffffffffffffffffffffffffff1673ffffffffffffffffffffffffffffffffffffffff163373ffffffffffffffffffffffffffffffffffffffff1614611e6a57600080fd5b6060849050600081511415611e7e57600080fd5b839050600081511415611e9057600080fd5b829050600081511415611ea257600080fd5b600960009054906101000a900473ffffffffffffffffffffffffffffffffffffffff1673ffffffffffffffffffffffffffffffffffffffff16630301b1d6868587336040518563ffffffff1660e01b8152600401808060200180602001806020018573ffffffffffffffffffffffffffffffffffffffff1673ffffffffffffffffffffffffffffffffffffffff168152602001848103845288818151815260200191508051906020019080838360005b83811015611f6d578082015181840152602081019050611f52565b50505050905090810190601f168015611f9a5780820380516001836020036101000a031916815260200191505b50848103835287818151815260200191508051906020019080838360005b83811015611fd3578082015181840152602081019050611fb8565b50505050905090810190601f1680156120005780820380516001836020036101000a031916815260200191505b50848103825286818151815260200191508051906020019080838360005b8381101561203957808201518184015260208101905061201e565b50505050905090810190601f1680156120665780820380516001836020036101000a031916815260200191505b50975050505050505050602060405180830381600087803b15801561208a57600080fd5b505af115801561209e573d6000803e3d6000fd5b505050506040513d60208110156120b457600080fd5b81019080805190602001909291905050509150509392505050565b6000806000600a84815481106120e157fe5b906000526020600020906008020190508060030160159054906101000a900460ff168160030160149054906101000a900460ff169250925050915091565b600081671bc16d674ec800000147111561213c5760019050612141565b600090505b919050565b8173ffffffffffffffffffffffffffffffffffffffff166108fc829081150290604051600060405180830381858888f1935050505015801561218c573d6000803e3d6000fd5b505050565b828054600181600116156101000203166002900490600052602060002090601f016020900481019282601f106121d257805160ff1916838001178555612200565b82800160010185558215612200579182015b828111156121ff5782518255916020019190600101906121e4565b5b50905061220d9190612211565b5090565b61223391905b8082111561222f576000816000905550600101612217565b5090565b9056fea265627a7a7231582077a7ca58a8de05dfbe134f0ac001c18bfbb014b8dc4dac80500aacb41be4f27164736f6c63430005100032",
  "source": "pragma solidity ^0.5.16;\n\nimport \"./Official.sol\";\nimport \"./Central_Authority.sol\";\n\ncontract Project is Official{\n\n    struct Grant_Request{\n        string subject;\n        string document_url;\n        uint weiRequested;\n        address payable project; // we must only need the address of the project for which the grant is requested, because the requester will obviously have to be an official in charge of that project (we will also make sure that a grant is requested only when a certain percentage of officials in charge of that project have voted for the request to be initiated, that has to be a part of Project contract)\n        bool isAccepted; // true means grant has been sanctioned, and money has already been transfered to the corresponding project, false does not mean it is rejected, it may mean that it has not been reviewed yet, so we need to have a different variable to see if it is pending or has been reviewed\n        bool isPending; // will be true initially, set to true when isAccepted is either set to true or false\n        bool isOpen; // after the request is granted it needs to be closed\n        uint totalVotes;\n        uint positiveVotes;\n        mapping(address=>bool) voted_officials;\n        bool ownerApproved;\n    }\n    \n    string Project_name;\n    string document_url;\n    string purpose;\n    address payable parent_project;\n    // need to find out a way to store the current progress status of the project, is it on time, behind schedule, how much work is done, etc.\n    mapping(uint=>address) public subProjectAddress;//mapping from token to project if created, not possible to traverse this without creating a different array to store tokens in order\n    uint[] tokenNoForSubProject;\n    address payable fatherbranch;\n\n    Grant_Request[] grantRequestsQueue;\n\n    //I cannot pass struct as an argument in the functions or constructors in cross contract calls\n    constructor(string memory _Project_name,\n            string memory _document_url,\n            string memory _purpose,\n            address _official_incharge,\n            address payable _father,\n            address payable _parent_project) public\n            {\n        owner = _official_incharge;\n        parent_project = _parent_project;\n        Project_name = _Project_name;\n        document_url = _document_url;\n        purpose = _purpose;\n        fatherbranch = _father;\n    }\n\n    function() payable external {}\n\n    function getProjectInfo() public view returns (string memory, string memory, string memory, address, address) {\n        return (Project_name, document_url, purpose, parent_project, fatherbranch);\n    }\n    \n    // string public verification_result; // what purpose does it solve?\n    // verification result is the output that has to be returned to the official on the front end, need not be saved on the blockchain\n    \n    function verifyPending_Projects(uint token_no) public returns (string memory) { // as we wont be able to return a list, we can consider having an input of request ID, so that we can get the result for a particular request\n        //this will call the Central_Authority project evalution function and \n        //that function will check if the officials of Central_Authority has passed its sub-project or not\n        //if the project has been passed then list of projects is receieved and it is added to the deployedProjects[]\n\n        bool isDeployed;\n        address payable projectAddress;\n\n        (isDeployed, projectAddress) = Central_Authority(fatherbranch).verifyPending_Projects(token_no);\n\n        if(isDeployed) {\n            subProjectAddress[token_no] = projectAddress;\n            tokenNoForSubProject.push(token_no);\n            return \"New Project Added\";\n        } else {\n            return \"No New Project added\";\n        }\n    }\n    \n    \n    function addNewSubProjectRequest(string memory _projectName,string memory _purpose,string memory _url) public ownerOnly returns (uint){\n        //In this function we will check that only Officials can make request and all the data is valid\n        // we will pass data to addNewProjectRequest function of Central_Authority contract\n        bytes memory strBytes = bytes(_projectName);\n        require(strBytes.length != 0);\n        strBytes = bytes(_purpose);\n        require(strBytes.length != 0);\n        strBytes = bytes(_url);\n        require(strBytes.length != 0);\n        \n        return Central_Authority(fatherbranch).addNewProjectRequest(_projectName,_url,_purpose,msg.sender);\n        //returning the token no.\n    }\n    \n    function requestGrant(string memory _subject,string memory _document_url,uint _weiAmountRequested) public ownerOnly returns (string memory, int) {\n        return Project(parent_project).handleGrantRequest(_subject, _document_url, _weiAmountRequested); // gotta make sure the instance parent project created here is not permanently stored on blockchain, it has to be just a storage pointer to the already deployed project and should be removed from memory when this function is returned\n    }\n\n    function checkRequestStatus(uint _requestID) public view returns (bool, bool) {\n        return Project(parent_project).grantApprovalCheck(_requestID);\n    }\n\n    function handleGrantRequest(string memory _subject,string memory _document_url, uint _weiAmountRequested) public returns (string memory, int) {\n\n        // check if the requesting project is a sub project\n        uint n = tokenNoForSubProject.length;\n        for(uint i=0; i<n; ++i){\n            if(subProjectAddress[tokenNoForSubProject[i]]==msg.sender) {\n                grantRequestsQueue.push( Grant_Request ({\n                    subject: _subject,\n                    document_url: _document_url,\n                    weiRequested: _weiAmountRequested,\n                    project: msg.sender,\n                    isAccepted: false,\n                    isPending: true,\n                    isOpen: true,\n                    totalVotes: 0,\n                    positiveVotes: 0,\n                    ownerApproved: false\n                }));\n                return (\"Request Added\", int(grantRequestsQueue.length-1));\n            }\n        }\n        return (\"Request Inapplicable\", -1);\n    }\n\n    function grantApprovalCheck(uint _index) external view returns (bool, bool) { // a function to be called by a sub project to check status of request thats why external\n        Grant_Request storage request = grantRequestsQueue[_index];\n        return (request.isPending, request.isAccepted);\n    }\n\n    function haveSufficientFunds(uint _weiAmount) private view returns (bool) {\n        if(address(this).balance > (2 ether + _weiAmount)) { // 2 ether is added to maintain a minimum balance in contract to perform other necessary operations, amount can be changed as required\n            return true;\n        } return false;\n    }\n\n    function grantFunds(address payable _projectAddress, uint _weiRequested) private {\n        _projectAddress.transfer(_weiRequested);\n    }\n\n    function voteForGrant(uint _index,bool _decision) public officialOnly {\n        Grant_Request storage request = grantRequestsQueue[_index];\n        \n        require(!request.voted_officials[msg.sender]);\n        \n        request.voted_officials[msg.sender]=true;\n        request.totalVotes++;\n        if(_decision)\n            request.positiveVotes++;\n\n        // vote from the head of the project is a must in addition to the voting limit to be met\n        if(msg.sender==owner)\n            request.ownerApproved=true;\n\n        if(request.ownerApproved==true && request.positiveVotes > (7*total_officals)/10)\n        {\n            request.isPending=false;\n            request.isAccepted=true;\n        } else if (request.totalVotes - request.positiveVotes >= (3*total_officals)/10) {\n            request.isPending=false;\n            request.isAccepted=false;\n        }\n    }\n    \n    function initiatePeriodicDistribution() public ownerOnly {\n\n        // for now the distribution rule is that the older requests are given higher priority\n        // each project is given at max a limited ether (which can be decided) so that all funds are not assigned to a single project\n\n        uint maxFunds = 2 ether; // will be assigned value in wei not ether\n        uint weiToBeGranted;\n\n        uint n = grantRequestsQueue.length;\n        for(uint i = 0; i<n; ++i) {\n            Grant_Request storage request = grantRequestsQueue[i];\n            if(request.isOpen && request.isAccepted) {\n                weiToBeGranted = request.weiRequested<maxFunds ? request.weiRequested : maxFunds;\n                if(haveSufficientFunds(weiToBeGranted)) {\n                    grantFunds(request.project, weiToBeGranted);\n                    // emit an event to notify the project that it has been granted funds. the event can be somehow used in the front end to generate some email notification\n                    request.weiRequested = request.weiRequested - weiToBeGranted;\n                    if(request.weiRequested==0) // if all requested funds granted, close request\n                        request.isOpen=false;\n                }\n                else // if funds were not enough for this request, we obviously dont have sufficient funds for further requests too as requests after this are relatively newer and are most probably having wei demands even higher therefore no point of checking further\n                    break;\n            }\n        }\n    }\n}",
  "sourcePath": "/home/harpreet/Desktop/Backend/contracts/Project.sol",
  "compiler": {
    "name": "solc",
    "version": "0.5.16+commit.9c3226ce.Emscripten.clang"
  },
  "schemaVersion": "3.3.4",
  "updatedAt": "2021-04-29T16:16:37.328Z",
  "devdoc": {
    "methods": {}
  },
  "userdoc": {
    "methods": {}
  }
}